:0420000002200E327A
:03200B00022801A7
:0320670002206AEA
:05206A0012207380FE4E
:04206F0090000022BB
:0E20730090064AE4F0A3F090064CE4F0A3F0CF
:0E2081009006C5E4F0A3F09006C7E4F0A3F0CB
:0B208F009006C9E4F0A3F07A007B008B
:0E209A00C3EA940AEB64809480501E8A04EB23
:0C20A800CC25E0CC33FDEC244EF582ED9D
:0C20B4003406F583E4F0A3F00ABA00DA69
:0320C0000B80D7BB
:0E20C300900644E4F0A3F0900646E4F0A3F08B
:0E20D1009006817440F0A37406F09000001297
:0C20DF003230C297900648E4F0A3F07481
:0A20EB0030C0E0743FC0E07480C014
:0C20F500E0123675158115811581745DAF
:0B210100C0E0743FC0E07480C0E0123A
:0C210C003675158115811581748DC0E0B9
:0C211800743FC0E07480C0E01236751502
:0A212400811581158174BCC0E074C0
:0C212E003FC0E07480C0E01236751581DF
:0A213A001581158174EBC0E0743FBD
:0E214400C0E07480C0E012367515811581155B
:0A21520081741AC0E07440C0E0740C
:0C215C0080C0E0123675158115811581D8
:0A216800122742AA82BA0D02806518
:0E2172008A82C002122730D0028A82C0021276
:0D2180003213E582D0026035EA24D0FA90D7
:0E218D00064AE0FBA3E0FC90068F740AF0E423
:0E219B00A3F08B828C83C002123521AB82AC84
:0E21A90083D002EA3395E0FD90064AEA2BF05F
:0621B700ED3CA3F080AB3B
:0A21BD007471C0E07440C0E074804B
:0E21C700C0E012367515811581158112207346
:0221D5008091F7
:0E21D70090064AE0FAA3E0FBC374149AE49B5E
:0E21E500503FC3EA9440EB94065036900691AA
:0E21F300740AF0E4A3F08A828B83C002C0035A
:0E220100123541E5828583F0D003D00245F00E
:0B220F007015EA4B60117498C0E07479
:0C221A0040C0E01233ED158115818012E8
:0922260074B9C0E07440C0E0127C
:09222F0033ED15811581122073B5
:0E22380090064AE0FAA3E0FB90066F7405F0F2
:0E224600E4A3F08A828B831230B0E582858398
:09225400F090064CF0A3E5F0F057
:0D225D0090064AE0FAA3E0FB8A828B831210
:0E226A0032B1AA82AB83900640EAF0A3EBF0FB
:0A227800EA4B701574E4C0E07440F6
:0E228200C0E07480C0E012367515811581151C
:0122900081CC
:0D22910090064CE0FAA3E0FB8A828B8312DA
:0E229E0032B1AA82AB83900642EAF0A3EBF0C5
:0A22AC00EA4B70287406C0E074418C
:0E22B600C0E07480C0E01236751581158115E8
:0E22C40081900640E0FAA3E0FB7C008A828B4A
:0622D200838CF01231C004
:0E22D800900640E0FAA3E0FB4A700302225D8C
:0E22E600900642E0FAA3E0FB4A700302225D7C
:0A22F4007428C0E07441C0E074805B
:0C22FE00C0E01236751581158115817441
:0A230A0040C0E07406C0E0E4C0E04B
:0A2314007444C0E07441C0E074801E
:0E231E00C0E0123675E58124FAF58190064084
:0E232C00E0FAA3E0FB90064AE0FCA3E0FDEC23
:0C233A002AFAED3BFBC002C0037470C027
:0C234600E07441C0E07480C0E012367505
:0E235200E58124FBF581900640E0FAA3E0FB54
:0E2360008A828B83E0FA3395E0FBC002C00353
:0A236E007499C0E07441C0E074806F
:0B237800C0E0123675E58124FBF58102
:0A23830074CBC0E07441C0E0748028
:0B238D00C0E012367515811581158126
:0D239800122742E582FA60E38A82C0021239
:0D23A5002730D002900646E0FBA3E0FC903C
:0E23B200064674012BF0E43CA3F0900644E0D4
:0E23C000FBA3E0FC90064AE0FDA3E0FEC3EBA9
:0823CE009DEC9E4003022695E0
:0E23D6008A82C00212360CE582D002701D8A87
:0E23E40082C0021235EFE582D00270108A82AC
:0E23F200C002123213E582D00270030224A74B
:0E240000900640E0FBA3E0FC900644E0FDA344
:0D240E00E0FEED2BF582EE3CF583EAF09048
:0E241B00064474012DF0E43EA3F0BA45139080
:0E24290006C5E0FBA3E0FC9006C574012BF095
:04243700E43CA3F0EE
:0E243B00BA53139006C7E0FBA3E0FC9006C75F
:0824490074012BF0E43CA3F048
:0E245100BA44139006C9E0FBA3E0FC9006C954
:08245F0074012BF0E43CA3F032
:0E2467008A82C002123213E582D0026033EA8C
:0E247500FB3395E0FCEB24D0FBEC34FFFCCBFA
:0B24830025E0CB33FCEB244EFBEC34D7
:0C248E0006FC8B828C83E0FDA3E0FE0DB9
:04249A00BD00010E72
:09249E008B828C83EDF0A3EEF0BB
:0524A700BA3D028003B4
:0324AC0002267D88
:0D24AF00EAFB3395E0FCC002C003C00474DA
:0A24BC00E3C0E07441C0E07480C08A
:0D24C600E0123675E58124FBF581D002900F
:0E24D3000644E0FBA3E0FCBB0006BC000302D5
:0224E100264B88
:0C24E300900662E4F0A3F0C00274FEC09A
:0C24EF00E07441C0E07480C0E01236755B
:0C24FB00158115811581D002C0027417F4
:0B250700C0E07442C0E07480C0E0122D
:0D2512003675158115811581D002C0027447
:0A251F006AC0E07442C0E07480C09E
:0E252900E0123675158115811581D002C002B1
:0A25370074BDC0E07442C0E074807F
:0E254100C0E0123675158115811581D002C0DB
:0C254F0002900640E0C0E0A3E0C0E07491
:0A255B0013C0E07443C0E07480C0B8
:0E256500E0123675E58124FBF581D0027B0083
:022573007C00EA
:0E257500900644E0FDA3E0FE8B078C00C3EF50
:082583009DE89E400302263092
:0E258B00900640E0FDA3E0FEEB2DF582EC3E55
:0E259900F583E0FD3395E0FEC002C003C004F0
:0A25A700C005C006741CC0E07443B8
:0E25B100C0E07480C0E0123675E58124FBF5B1
:0E25BF0081D004D003D002900662E0FDA3E0BC
:0D25CD00FE90066274012DF0E43EA3F09034
:0E25DA000662E0FDA3E0FEBD1044BE0041908D
:0E25E8000662E4F0A3F074012BFDE43CFE90CB
:0E25F6000640E0FFA3E0F8ED2FFDEE38FEC03A
:0C26040002C003C004C005C0067422C060
:0C261000E07443C0E07480C0E012367536
:0C261C00E58124FBF581D004D003D0023E
:052628000BBB00010CDA
:03262D000225750E
:0A263000C00274BDC0E07442C0E0B7
:0E263A007480C0E0123675158115811581D0AF
:03264800028019F4
:0A264B00C002742DC0E07443C0E02B
:0E2655007480C0E0123675158115811581D094
:012663000274
:0A266400C00274CBC0E07441C0E076
:0E266E007480C0E0123675158115811581D07B
:01267C00025B
:0A267D00BA3F07C002122838D0024D
:05268700BA5B028003B4
:03268C000223988E
:06268F00122C0D0223983D
:0A269500BA3F07C002122838D00235
:09269F00BA5B06122C0D0223980F
:0A26A8007456C0E07443C0E0748073
:0E26B200C0E01236751581158115810223983E
:0E26C000AAF0AB83E582900664F0A3EBF0A3D2
:0E26CE00EAF0900664E0FAA3E0FBA3E0FC7DD6
:0326DC00007E007D
:0E26DF008A828B838CF0123F14FF60300ABA9F
:0326ED0000010BDE
:0E26F000900664EAF0A3EBF0A3ECF08F82C03A
:0E26FE0002C003C004C005C006122730D0067B
:0E270C00D005D004D003D0020DBD00C70E8052
:01271A00C4FA
:0E271B00900664EAF0A3EBF0A3ECF00DBD0015
:02272900010E9F
:05272B008D828E832267
:06273000E582900667F04F
:0C2736003099FD900667E0F599C29922E9
:0527420010980280FB6D
:05274700AA998A82221C
:0E274C00E582900668F0900668E0FA7B007C5B
:01275A00007E
:0E275B00900644E0FDA3E0FE8B078C00C3EF68
:062769009DE89E400122E4
:0E276F00900640E0FDA3E0FEEB2DF582EC3E6F
:0E277D00F583E0FFB50275900669EBF0A3EC62
:01278B00F05D
:0E278C00C002900644E0FFA3E0F8EF24FFF542
:07279A0017E834FFF5189069
:0827A1000669E0F515A3E0F55F
:0427A90016AA15A9AE
:0727AD0016C3EA9517E99538
:0A27B40018E433D0026031C002E5E2
:0827BE00152DFFE5163EF8059C
:0627C60015E4B515020543
:0127CC0016F6
:0A27CD00E5152DF582E5163EF583B3
:0C27D700E0FA8F828883F0900669E51517
:0927E300F0A3E516F0D00280A07D
:0527EC001FBFFF0118F2
:0827F100900644EFF0A3E8F0AC
:0527F9000BBB00010C08
:0327FE0002275B54
:0E280100C0E0C082C083C002C003C0D075D04A
:0E280F0000900648E0FAA3E0FB900648740132
:0E281D002AF0E43BA3F0758CFC758A65C28D31
:0D282B00D0D0D003D002D083D082D0E032D4
:0D283800900646E0FAA3E0FB0ABA00010B8F
:0A284500C002C0037488C0E07443B1
:0E284F00C0E07480C0E0123675E58124FBF510
:0E285D0081900644E0FAA3E0FB0ABA00010BEA
:0A286B00C002C00374B4C0E074435F
:0E287500C0E07480C0E0123675E58124FBF5EA
:0E28830081900644E0FAA3E0FB90064AE0FCD8
:0E289100A3E0FDECC39AFAED9BFBC002C0036E
:0A289F0074DEC0E07443C0E07480F2
:0C28A900C0E0123675E58124FBF5817457
:0A28B50005C0E07444C0E07480C068
:0C28BF00E01236751581158115817458E2
:0B28CB00C0E07444C0E07480C0E01264
:0C28D60036751581158115817405C0E070
:0C28E2007444C0E07480C0E0123675152C
:0E28EE00811581158190064AE0C0E0A3E0C08C
:0A28FC00E07440C0E07406C0E0E4A0
:0A290600C0E0748BC0E07444C0E030
:0E2910007480C0E0123675E58124F8F58190E0
:0C291E00064CE0C0E0A3E0C0E07442C042
:0A292A00E07406C0E0E4C0E074D5DC
:0B293400C0E07444C0E07480C0E012FA
:0C293F003675E58124F8F5817405C0E0D0
:0C294B007444C0E07480C0E012367515C2
:0A2957008115811581741FC0E07422
:0C29610045C0E07480C0E012367515819E
:0A296D00158115817473C0E07445F4
:0E297700C0E07480C0E0123675158115811520
:0A298500817405C0E07444C0E074E2
:0D298F0080C0E0123675158115811581900C
:0E299C0006C9E0C0E0A3E0C0E09006C7E0C0BE
:0E29AA00E0A3E0C0E09006C5E0C0E0A3E0C0FE
:0A29B800E074A6C0E07445C0E074AE
:0E29C20080C0E0123675E58124F7F5817A00B9
:0229D0007B008A
:0E29D200C3EA940AEB648094805067BA052033
:0C29E000BB001DC002C00374CEC0E07438
:0C29EC0045C0E07480C0E0123675158113
:0829F80015811581D003D00206
:0C2A00008A04EBCC25E0CC33FDEC244E26
:0C2A0C00F582ED3406F583E0FCA3E0FD4C
:0D2A1800C002C003C004C005C002C00374AA
:0A2A2500D1C0E07445C0E07480C029
:0E2A2F00E0123675E58124F9F581D003D0025E
:072A3D000ABA00910B808E24
:0A2A4400C002C00374E3C0E0744553
:0E2A4E00C0E07480C0E0123675158115811548
:0E2A5C0081D003D002C002C003122742D00373
:0B2A6A00D002C002C003741FC0E07463
:0C2A750045C0E07480C0E0123675158189
:0D2A810015811581D003D002C002C003747E
:0A2A8E0012C0E07446C0E07480C07E
:0E2A9800E0123675158115811581D003D0022C
:0A2AA600C002C0037405C0E07444D0
:0E2AB000C0E07480C0E01236751581158115E6
:0E2ABE0081D003D002900640E0FCA3E0FDEAC8
:0C2ACC002CFAEB3DFBC002C0037442C0BA
:0C2AD800E07446C0E07480C0E012367567
:0E2AE400E58124FBF58190066BE4F0A3F07A07
:032AF200007B0066
:0E2AF500900644E0FCA3E0FD8A068B07C3EECA
:082B03009CEF9D4003022BA78B
:0E2B0B00900640E0FCA3E0FDEA2CF582EB3DD5
:0E2B1900F583E0FC3395E0FDC002C003C0046C
:0A2B2700C005744CC0E07446C0E025
:0E2B31007480C0E0123675E58124FBF581D07A
:0E2B3F0003D002900640E0FCA3E0FDEA2CFC6F
:0E2B4D00EB3DFD8C828D83E4F090066BE0FE84
:0E2B5B00A3E0FF90066B74012EF0E43FA3F0A0
:0E2B690090066BE0FEA3E0FFBE102BBF00281D
:0C2B7700C002C003C004C0057442C0E0EE
:0C2B83007446C0E07480C0E0123675E5B6
:0E2B8F008124FBF581D003D00290066BE4F0A8
:022B9D00A3F0A3
:052B9F000ABA00010B61
:032BA400022AF50D
:0A2BA7007451C0E07446C0E0748071
:0E2BB100C0E01236751581158115819006441D
:0E2BBF00E4F0A3F0900646E4F0A3F09006C503
:0E2BCD00E4F0A3F09006C7E4F0A3F09006C970
:082BDB00E4F0A3F07A007B0096
:0E2BE300C3EA9409EB64809480501E8A04EBD0
:0C2BF100CC25E0CC33FDEC244EF582ED49
:0C2BFD003406F583E4F0A3F00ABA00DA15
:032C09000B80D766
:012C0C0022A5
:0C2C0D00900644E0C0E0A3E0C0E0748347
:0B2C1900C0E07446C0E07480C0E01210
:0E2C24003675E58124FBF58190066DE4F0A382
:0A2C3200F07499C0E07446C0E0742D
:0D2C3C0080C0E012367515811581158112DA
:0E2C49002742AA82C002122730D0024389011E
:0E2C5700758CFC758A65C28C43A88290064875
:0D2C6500E4F0A3F0D28CD2978A82C0021254
:0D2C7200360CE582D002701D8A82C002126D
:0D2C7F0035EFE582D00270108A82C002128B
:0B2C8C003213E582D002700302301208
:052C9700BA45028003B4
:032C9C00BA65070F
:072C9F009006C5E4F0A3F06C
:052CA600BA5302800397
:032CAB00BA7307F2
:072CAE009006C7E4F0A3F05B
:052CB500BA4402800397
:032CBA00BA6407F2
:072CBD009006C9E4F0A3F04A
:0E2CC4008A82C002123213E582D0026022EA38
:0E2CD200FB3395E0FCEB24D0FBEC34FFFCCB95
:0C2CE00025E0CB33FCEB244EF582EC34F5
:072CEC0006F583E4F0A3F0FC
:0E2CF300C3EA648094C1E433FB6003022D87C2
:0D2D0100C374DA8AF063F08095F05003028D
:022D0E002D870F
:082D10007C007D007E007F00C5
:0B2D1800C003900644E0F508A3E0F5BE
:0A2D2300098E038F00C3EB9508E84A
:0C2D2D009509E433D003604A900640E0B2
:0E2D3900F8A3E0F9EE28F582EF39F583E0F813
:052D4700B50202802727
:0C2D4C00C003EAF93395E0FB742029F580
:0A2D580008E43BF509E83395E0FBC1
:0A2D6200E8B50808EBB50904740198
:022D6C008001E4
:012D6E00E480
:042D6F00D003600528
:052D73000CBC00010D85
:072D78000EBE009C0F8099C4
:082D7F0090066DECF0A3EDF0ED
:0B2D8700C3EA648094E1E433F50CE53E
:062D92000C6003022E2478
:0D2D9800C374FA8AF063F08095F0500302D6
:022DA5002E24DA
:0C2DA70090066DE0FDA3E0FE7F007800C8
:092DB300900644E0F508A3E0F5E8
:0A2DBC00098F048801C3EC9508E9B3
:0C2DC60095095052900640E0F9A3E0FC93
:0C2DD200EF29F582E83CF583E0F508E508
:082DDE0008B502047401800134
:012DE600E408
:0C2DE7007027EAF93395E0FCE924E0F5E0
:072DF3000AEC34FFF50BAC04
:092DFA0008E5083395E0F9ECB599
:0A2E03000A08E9B50B047401800110
:012E0D00E4E0
:022E0E0060055D
:052E10000DBD00010EE4
:072E15000FBF009A0880972F
:082E1C0090066DEDF0A3EEF04D
:0E2E2400C3EA648094B0E433FD7069C374B9EE
:0E2E32008AF063F08095F0405D90066DE0FE42
:072E4000A3E0FF7800790018
:0B2E4700C005900644E0F50AA3E0F58A
:0A2E52000B88048905C3EC950AED16
:0B2E5C00950BE433D005602CC00590FE
:0E2E67000640E0FCA3E0FDE82CF582E93DF515
:0A2E750083E0FCB502047401800143
:012E7F00E46E
:092E8000D00560050EBE00010F33
:072E890008B800BA0980B788
:082E900090066DEEF0A3EFF0D7
:0E2E980090066DE0FCA3E0FEC3E49C74808E07
:0B2EA600F063F08095F04003022FD491
:0E2EB10074202AFFC374DA8AF063F08095F073
:0E2EBF00E433F8EA24E0F9C374FA8AF063F011
:0C2ECD008095F0E433F50AC374B98AF074
:0B2ED90063F08095F0E433F508E4F5A9
:032EE4000DF50EDB
:0A2EE700C3E50D9CE50E64808EF03B
:0A2EF10063F08095F04003023044C6
:0E2EFB00EB704DE8704A8A82C002C003C0042A
:0E2F0900C005C006C007C000C00112274CD092
:0E2F170001D000D007D006D005D004D003D0E2
:0E2F2500028F82C002C003C004C005C006C0F7
:0E2F330007C000C00112274CD001D000D0070B
:0A2F4100D006D005D004D003D00262
:0A2F4B00E50C704EE50A704A8A8218
:0E2F5500C002C003C004C005C006C007C00013
:0E2F6300C00112274CD001D000D007D006D0FC
:0E2F710005D004D003D0028982C002C003C084
:0E2F7F0004C005C006C007C000C00112274CE8
:0E2F8D00D001D000D007D006D005D004D0036C
:022F9B00D00262
:0C2F9D00ED7029E50870258A82C002C092
:0E2FA90003C004C005C006C007C000C001126E
:0E2FB700274CD001D000D007D006D005D004A2
:042FC500D003D00263
:072FC900050DE4B50D020542
:012FD0000EF2
:032FD100022EE7E6
:0D2FD400EAFB3395E0FCC002C003C00474AA
:0A2FE100BDC0E07446C0E07480C07B
:0E2FEB00E0123675E58124FBF581D002C002AC
:0A2FF90074CBC0E07441C0E07480A6
:0E300300C0E0123675158115811581D002804E
:01301100328C
:0A301200C00274DEC0E07446C0E0A6
:0E301C007480C0E0123675158115811581D0C3
:0A302A0002C00274CBC0E07441C084
:0E303400E07480C0E01236751581158115819B
:02304200D002BA
:0E304400C297C28C900648E0FBA3E0FC8B8292
:0E3052008C83C0021234F5AB82AC83D002C076
:0A30600002C003C00474FAC0E0745B
:0C306A0046C0E07480C0E0123675E581BD
:0E30760024FBF581D002EA3395E0FBC002C0D6
:0A30840003741CC0E07447C0E07440
:0D308E0080C0E0123675E58124FBF58174E9
:0A309B0042C0E07447C0E07480C03A
:0B30A500E0123675158115811581229F
:0E3F30002E2D2E2020202E2D2E202E2D2D2E3B
:0E3F3E00202E2D2E202020202E2D2D2E202056
:0E3F4C002E2D2D2E202E2D2E2E2D2E202E2D04
:033F5A002D2E0009
:0E3F5D000A0D3A203A2E2D2E3A203A3A202E06
:0E3F6B002D2D273A203A2020203A202E2D2DF1
:0E3F7900273A202C2E203A3A206027203A3A90
:063F8700202E2D2D270065
:0E3F8D000A0D3A203A3A203A3A203A3A206099
:0E3F9B003B20203A203A2020203A203A2020D5
:0E3FA900203A203A3A203A3A202E2E203A3A78
:053FB70020603B3A0010
:0E3FBC000A0D3A602720602727203B3A203A62
:0E3FCA005F5F203A203A5F5F203A203A5F5F47
:0E3FD800203A203A3B203A3A203A3B203A3A2F
:053FE600203A5F5F00BE
:0E3FEB000A0D602E2C602E2C2720602E5F5FAA
:0E3FF9002E273A5F5F5F2E27602E5F5F2E2718
:0E400700602E5F5F2E273A5F3B3A5F3B602ED4
:054015005F5F2E270093
:0E401A000A0A0D506C6561736520656E746551
:0E4028007220612062756666657230207369D1
:0E4036007A653A0A0D28204D75737420626574
:0E404400206265747765656E2032302026207C
:0E4052003136303020616E642061206D756C57
:0E4060007469706C65206F66203130290A0D7E
:03406E003E3A00D7
:0E4071000A0D496E76616C69642063686172A5
:0E407F00616374657220656E74657265642EEF
:0B408D002054727920616761696E00A9
:0E4098000A0A0D5355434345535321427566A2
:0E40A6006665722073697A652056616C6964E4
:0540B400210A0A0D00C5
:0E40B9000A0A0D4552524F5221427566666545
:0E40C700722073697A6520496E76616C6964B7
:0E40D5002E2054727920416761696E0A0A0D2F
:0140E30000DC
:0E40E4000A0A0D4552524F5221206D616C6C3C
:0E40F2006F63204275666665723020666169F4
:064100006C65640A0D006D
:0E4106000A0A0D4552524F5221206D616C6C19
:0E4114006F63204275666665723120666169D0
:064122006C65640A0D004B
:0E4128000A535543434553532120726D616C79
:0E4136006C6F63207061737365640A0A0D007C
:0E4144000A0D5374617274696E67206C6F63AC
:0E4152006174696F6E206F6620627566666527
:0E41600072207A65726F3A203078253034581C
:02416E0020002F
:0E4170000A0D456E64696E67204C6F636174C2
:0E417E00696F6E206F6620627566666572203E
:0D418C007A65726F203A3078253034580083
:0E4199000A0D436F6E74656E74206F662031E0
:0E41A7007374206C6F636174696F6E206F66B5
:0E41B50020627566666572205A65726F206919
:0841C3007330782530325800FA
:0E41CB000A0A0D456E746572204368617261C8
:0A41D90063746572733A200A0D004A
:0E41E3000A0D596F7520656E74657265642053
:0D41F1006120657175616C207369676E0057
:0E41FE000A0A0A0A0A0A0A0A0A0A0A0A0A0A27
:0B420C000A0A0A0A0A0A0A0A0A0A0043
:0E4217000A0D3D3D3D3D3D3D3D3D3D3D3D3DA6
:0E4225003D3D3D3D3D3D3D3D3D3D3D436F6ECC
:0E42330074656E7473206F6620427566666552
:0E4241007220303D3D3D3D3D3D3D3D3D3D3D0E
:0E424F003D3D3D3D3D3D3D3D3D3D3D3D3D3D0B
:0D425D003D3D3D3D3D3D3D3D3D3D3D3D0078
:0E426A000A0D414444523A20202020204441B5
:0E4278005441202D2D2D2D2D2D2D2D2D2D2D94
:0E4286002D2D2D2D2D2D2D2D2D2D2D2D2D2DB4
:0E4294002D2D2D2D2D2D2D2D2D2D2D2D2D2DA6
:0E42A2002D2D2D2D2D2D2D2D2D2D2D2D2D2D98
:0D42B0002D2D2D2D2D2D2D2D2D2D2D2D00E5
:0E42BD000A0D2D2D2D2D2D2D2D2D2D2D2D2DC0
:0E42CB002D2D2D2D2D2D2D2D2D2D2D2D2D2D6F
:0E42D9002D2D2D2D2D2D2D2D2D2D2D2D2D2D61
:0E42E7002D2D2D2D2D2D2D2D2D2D2D2D2D2D53
:0E42F5002D2D2D2D2D2D2D2D2D2D2D2D2D2D45
:0E4303002D2D2D2D2D2D2D2D2D2D2D2D0A0A7C
:024311000D009D
:094313003078253034583A2000BE
:06431C002530325820009C
:0B4322000A0D3078253034583A200096
:0E432D000A0A0D4275666665723020697320BB
:0E433B00456D7074792E204E6F7468696E6740
:0D43490020746F20446961706C617921005F
:0E4356000A0D4552524F52214275666665723D
:0E436400302069732066756C6C20746F2065C4
:0E4372006D70747920627566666572207072D7
:0843800065737320273F27003D
:0E4388000A0A0D546F74616C206E756D6265CB
:0E43960072206F6620636861726163746572E5
:0E43A40073207265636965766564203D20258F
:0243B2006400A5
:0E43B4000A0A0D546F74616C206E756D62659F
:0E43C20072206F6620636861726163746572B9
:0E43D000732073746F726564203D20256400B5
:0E43DE000A0A0D617661696C61626C65206689
:0E43EC0072656520737061636520697320201F
:0B43FA003D202564206279746573008B
:0E4405000A0D2D2D2D2D2D2D2D2D2D2D2D2D76
:0E4413002D2D2D2D2D2D2D2D2D2D2D2D2D2D25
:0E4421002D2D2D2D2D2D2D2D2D2D2D2D2D2D17
:0E442F002D2D2D2D2D2D2D2D2D2D2D2D2D2D09
:0E443D002D2D2D2D2D2D2D2D2D2D2D2D2D2DFB
:0D444B002D2D2D2D2D2D2D2D2D2D2D2D0048
:0E4458000A0D202020202020202020202020BF
:0E446600202020202020202020202020202088
:0E4474002020202042756666657220496E6623
:094482006F726D6174696F6E00C8
:0E448B000A0D20202042554646455220302082
:0E4499003A202020205374617274696E6720EF
:0E44A700416464726573733D203078253034B3
:0E44B5005820202020416C6C6F636174656498
:0E44C300205370616365203D202564206279DE
:0444D100746573009B
:0E44D5000A0D20202042554646455220312037
:0E44E3003A202020205374617274696E6720A5
:0E44F100416464726573733D20307825303469
:0E44FF005820202020416C6C6F63617465644E
:0E450D00205370616365203D20256420627993
:04451B007465730050
:0E451F000A0A0D2D2D2D2D2D2D2D2D2D2D2D7E
:0E452D002D2D2D2D2D2D2D2D2D2D2D2D2D2D0A
:0E453B002D2D2D2D2D2D2D2D2D2D2D2D2D2DFC
:0E4549002D2D2D2D2D2D2D2D2D2D2D2D2D2DEE
:0E4557002D2D2D2D2D2D2D2D2D2D2D2D2D2DE0
:0E4565002D2D2D2D2D2D2D2D2D2D2D2D2D00FF
:0E4573000A0D202020202020202020202020A3
:0E45810020202020202020202020202020206C
:0E458F0020202020427566666572302053742D
:09459D00617469737469637300B1
:0E45A6000A0D43686172616374657220436F91
:0E45B400756E747320453D20256409533D202B
:0C45C200256409443D2025640A0A0D0010
:0345CE000A0D00D3
:0E45D100256420636F756E74203D20256420E4
:0445DF002020200078
:0E45E3000A0A0D507265737320616E79206BA9
:0E45F100657920746F20636F6E74696E756556
:0E45FF0020746F2064756D70206275666665AD
:05460D00722E2E2E00AC
:0E4612000A0D20202020202020202020202003
:0E4620002020202020202020202020202020CC
:0E462E002020202042756666657220436F6E64
:06463C0074656E7473004A
:0A4642000A0D3078253034582000AE
:05464C002563202000A1
:0E4651000A0A0D535543434553532120427529
:0E465F0066666572302044756D706564200AD1
:0E466D000A0D20656E746572204368617261EB
:08467B0063746572733A2000BC
:0E4683000A0D53746F7261676520436F756E88
:0846910074203D2025643A006D
:0E4699000A0D506C6561736520656E74657264
:0E46A70020612073746F726167652063686123
:0846B5007261637465723A0042
:0E46BD000A0A0D4E6F202725632720707265B4
:0E46CB0073656E7420696E20427566666572B6
:0546D900300A0A0D008B
:0E46DE000A0A0D4E6F7420612073746F7261B2
:0E46EC006765206368617261637465723A00ED
:0E46FA0054686520436F756E742066726F6D94
:0E470800207468652074696D657220697320E5
:064716002564206D730014
:0E471C000A0A0D2053554343455353212027CD
:0E472A002563272064656C65746564206672E3
:0A4738006F6D204275666665720021
:0E4742000A0A0D20456E74657220436861728C
:0B4750006163746572733A200A0D006B
:02476600000051
:0247680000004F
:02476A0000004D
:0E30B000AA83E582900671F0A3EAF090067301
:0E30BE00E4F0A3F090066FE0FAA3E0FB7C10B4
:0C30CC00900671E0FDA3E0FE339200EEE0
:0E30D800CD25E0CD33FE900671EDF0A3EEF0B5
:0E30E600900673E0FDA3E0FECD25E0CD33FEA5
:0C30F400900673EDF0A3EEF03000129097
:0E3100000673E0FDA3E0FE90067374014DF02F
:03310E00A3EEF03D
:0E311100900673E0FDA3E0FEC3ED9AEE9B4036
:0D311F001D900673EDC39AF0EE9BA3F09097
:0E312C000671E0FDA3E0FE90067174014DF007
:03313A00A3EEF011
:0E313D00DC8D900671E0FAA3E08A82F5832211
:0E314B00AA83E582900677F0A3EAF09006775B
:0C315900E0FAA3E0FB4A700490000022A2
:0E316500EA24FCFAEB34FFFB90067FE0FCA3AB
:0E317300E0FD900679ECF0A3EDF0900675E417
:03318100F0A3F0C8
:0E318400900679E0FCA3E0FD4C6025EAB5045E
:0731920006EBB50502801BEE
:0E319900900675ECF0A3EDF08C828D83E0FCC7
:0D31A700A3E0FD900679ECF0A3EDF080D0E0
:0C31B400900679E0FAA3E08A82F58322FD
:0E31C000AAF0AB83E58290067BF0A3EBF0A3B0
:0E31CE00EAF090067BE0FAA3E0FBA3E0FC8AA7
:0E31DC00828B8312314BAA82AB83EA4B6028B0
:0E31EA00900675E0FCA3E0FD4C700B8A828B12
:0831F80083A3A3E4F0A3F0227D
:0E3200008A828B83E0FAA3E0FB8C828D83EA46
:04320E00F0A3EBF04E
:013212002299
:06203D00E478FFF6D8FD77
:08201B007906E94400601B7A1C
:05202300019047667802
:03202800C575A0DB
:0A202B0006E493F2A308B8000205D2
:08203500A0D9F4DAF275A0FF56
:0E321300E58290067EF090067EE0FABA30006A
:0B3221004009EA24C640047582012227
:04322C007582002285
:0E323000AA83E582900683F0A3EAF09006835D
:0E323E00E0FAA3E0FB900685EAF0A3EBF0EACD
:0E324C004B702090068574012AF0E43BA3F03D
:0D325A00900681E0FAA3E0FB1ABAFF011B09
:08326700900681EAF0A3EBF0F0
:0E326F00900685E0FAA3E0FB90067FEAF0A34C
:0E327D00EBF0900681E0FCA3E0FDEC2AFCEDF6
:0E328B003BFDEC24FEFCED34FFFD8A828B83BC
:0E329900ECF0A3EDF08C828D83E4F0A3F08ABC
:0A32A700828B83A3A3E4F0A3F022BE
:0E32B100AA83E582900687F0A3EAF0900687D4
:0E32BF00E0FAA3E0FBC374FB9A74FF9B50047B
:0432CD00900000224B
:0E32D10090068774042AF0E43BA3F090067F79
:0E32DF00E0FAA3E0FB900689EAF0A3EBF09082
:0832ED000687E0F515A3E0F5EA
:0132F50016C2
:0E32F600900689E0FCA3E0FD8C828D83E0FE53
:0E330400A3E0FF8E008F018C028D03E8C39AB8
:0E331200F8E99BF98C828D83A3A3E0FAA3E077
:0C332000FBE8C39AF8E99BF9C3E8951597
:0C332C00E99516400D90068B74042CF0FF
:06333800E43DA3F0802338
:0E333E00900689EEF0A3EFF0900689E0FAA366
:0E334C00E0FB8A828B83E0FAA3E0FB4A709CD0
:07335A0090068BE4F0A3F0E4
:0E33610090068BE0FAA3E0FB4A70030233E112
:0E336F00900689E0FAA3E0FB74022AFCE43B1E
:0E337D00FD8C828D83E0FEA3E0FF4E70139066
:0E338B000687E0F8A3E0F98C828D83E8F0A3BA
:04339900E9F0804493
:0E339D00EE2AFEEF3BFF8A828B83E0FCA3E06A
:0E33AB00FD8E828F83ECF0A3EDF08A828B837F
:0D33B900EEF0A3EFF074022EFAE43FFB905B
:0E33C6000687E0FCA3E0FD8A828B83ECF0A377
:0D33D400EDF090068B74042EF0E43FA3F0A2
:0C33E10090068BE0FAA3E08A82F58322BC
:0533ED00C00F85810FF7
:0B33F200E50F24FDF886831886821882
:0E33FD00E493A324DB600C242560051234DA6F
:02340B0080F04F
:03340D000234F294
:09341000D2D5E493A3C083C0826D
:03341900B4731475
:09341C0086F018868318868218D8
:0B342500123F146053A31234DA80F54C
:0A343000B46307E6181234DA804393
:0E343A00B46417E630E74618E6F42401F608FD
:0C344800E6F43400F6742D1234DA803300
:0A345400B4782D868318868218E4F0
:0B345E001234CBE5831234CAE5831260
:0A34690034CBE5821234CAE582126A
:0A34730034CB30D50574301234DA82
:07347D00D082D0830233FD71
:03348400B475F626
:06348700E6FA18E6F91850
:0D348D007C107D271234B5FF7CE87D031212
:0E349A0034B5C4F5837C647D001234B54283E2
:0D34A800E975F00A84C445F0F582EF80A9B3
:0234B5007B009A
:0E34B7000BC3E99CF9EA9DFA50F61BE92CF9CB
:0534C500EA3DFAEB22D4
:0134CA00C43D
:0734CB00540F700320D51F10
:0834D200C2D52490D43440D48B
:0E34DA00C083C082C0F0F582E8C0E012273047
:0934E800D0E0F8D0F0D082D083CE
:0134F10022B8
:0334F200D00F22D6
:0E34F500AA83E58290068DF0A3EAF090068D82
:0E350300E0FAA3E0FB33B3E433FC60068A0475
:043511008B0580079F
:07351500C3E49AFCE49BFDF6
:05351C008C828D83226A
:0E352100AA83AB828BF090068FE0A4F8A9F08D
:0E352F008AF0E0A429F98BF0A3E0A429F5832B
:04353D00888222223C
:0E354100AA83E582900693F0A3EAF090069527
:0C354F00E4F0900693E0FAA3E0FB7C009F
:0E355B00900691E0FDA3E0FE235401FF7037BF
:0E356900EECD25E0CD33FE900691EDF0A3EE01
:0E357700F0900691E0FDA3E0FEC3EA9DEB9EFE
:0E3585005011EEC313CD13CDFE900691EDF064
:05359300A3EEF080082A
:083598000C900695ECF080BBDD
:0535A000900695E0FA21
:0E35A500900693E0FBA3E0FC900691E0FDA3EE
:0E35B300E0FEC3EB9DEC9E400B900693EBC335
:0635C1009DF0EC9EA3F05A
:0E35C700900691E0FBA3E0FCC313CB13CBFCFA
:0E35D500900691EBF0A3ECF08A031AEB70C2A3
:0C35E300900693E0FAA3E08A82F58322B0
:082043007800E84400600A790E
:03204B000075A07D
:06204E0000E4F309D8FCD8
:0820540078C5E84406600C7930
:0B205C0007900000E4F0A3D8FCD9FAC4
:0E35EF00E582900696F0900696E0FABA61002A
:0B35FD004009EA248540047582012289
:0436080075820022A5
:0E360C00E582900697F0900697E0FABA41002A
:0B361A004009EA24A54004758201224B
:043625007582002288
:08362900C00F85810FAA821277
:053631002730D00F223C
:0E363600AAF0AB83E582900699F0A3EBF0A317
:0E364400EAF0900699E0FAA3E0FBA3E0FC9008
:0E3652000698E0FD9006ACE4F0A3F0A3F09023
:0E36600006AFEAF0A3EBF0A3ECF09006B2ED9B
:07366E00F090362902378EAF
:06367500C00F85810FE586
:0C367B000F24FBFA9006ACE4F0A3F0A3CF
:0C368700F0E50F24FBF89006AFE6F00819
:0D369300A3E6F008A3E6F09006B2EAF0907E
:0A36A000362912378EAA82AB83D0C0
:0236AA000F22ED
:0C36AC00E5829006A8F09006A8E0FA90D5
:0E36B800069EE0C0E0A3E0C0E0A3E0C0E07426
:0836C600DAC0E07436C0E090A8
:0C36CE00069CE0C0E0A3E0C0E08A82227D
:0E36DA001581158115819006A6E0FAA3E0FB8C
:0C36E8009006A674012AF0E43BA3F02237
:0E36F400E5829006A9F09006A9E0FA74302A4B
:0C370200FA24C6500A74072AFA300103AA
:03370E0043022053
:053711008A820236ACC3
:0E371600E5829006AAF09006AAE0FAC4540FCD
:0E372400FBF582C0021236F4D00253020F8A67
:04373200820236F4E5
:0E373600E5829006ABF09006A1E0FAA3E0FB5E
:0E374400A3E0FCA3E0FD9006A5E0FE9006AB1E
:04375200E0FF7820FC
:0E375600EE2EFEED235401F94206EA2AFAEBAC
:0E37640033FBEC33FCED33FDC3EE9F4007EE6C
:06377200C39FFE430201AB
:0E377800D8DC9006A1EAF0A3EBF0A3ECF0A3DE
:08378600EDF09006A5EEF02223
:0E378E00AA83E5829006B3F0A3EAF09006B39A
:0E379C00E0FAA3E0FB90069CEAF0A3EBF090AD
:0E37AA0006ACE0FAA3E0FBA3E0FC90069EEA6A
:0E37B800F0A3EBF0A3ECF09006A6E4F0A3F073
:0E37C6009006AFE0FAA3E0FBA3E0FC8A828B42
:0E37D400838CF0123F14FD9006AF74012AF0B2
:0D37E200E43BA3F0A3ECF0ED7003023EB554
:0537EF00BD250280036E
:0337F400023EADE5
:0537F700C202C203C282
:0437FC0004C205C23C
:0438000006C207C233
:0438040008C209905D
:0938080006B5E4F09006B6F0905C
:0E38110006B774FFF09006AFE0FAA3E0FBA349
:02381F00E0FCCB
:0E3821008A828B838CF0123F14FEA3AA82AB26
:0D382F00839006AFEAF0A3EBF0A3ECF0905D
:0D383C0006B9EEF0BE25088E821236AC02F1
:0238490037C680
:05384B008E07BF3000F4
:0E38500040498E07EF24C640429006B7E0FFC5
:0E385E00BFFF29C002C003C0049006B6E0FA06
:0E386C0075F00AA4FAEE24D09006B62AF09069
:0D387A0006B6E0FAD004D003D002709BD255
:0338870003809724
:0E388A00EF75F00AA4FFEE24D09006B72FF0E1
:03389800023821D2
:0E389B009006B9E0FEBE2E089006B7E4F002DB
:0238A9003821C4
:0E38AB008E82C002C003C004C0061235EFE5D5
:0C38B9008224FF9201D006D004D003D07E
:0B38C500023001079006B974DF5EF0CE
:0A38D0009006B9E0FEBE200280550C
:0538DA00BE2B02804B33
:0538DF00BE2D02804136
:0538E400BE4202804B12
:0538E900BE4302805007
:0638EE00BE4403023B2270
:0638F400BE4603023B4446
:0638FA00BE4903023B225F
:05390000BE4C02803402
:06390500BE4F03023B2C43
:06390B00BE5003023A84E5
:05391100BE53028042DC
:06391600BE5503023B3424
:06391C00BE5803023B3C13
:03392200023B481D
:05392500D2020238216E
:05392A00D20402382167
:05392F00D20502382161
:05393400D2070238215A
:05393900D20802382154
:0E393E009006B2E0FA24FEF89006B2F086027F
:0C394C00088603188A821236AC023B5435
:0E3958009006B2E0FA24FDF89006B2F0860266
:0E39660008860308860418189006A1EAF0A34C
:0E397400EBF0A3ECF09006A1E0FAA3E0FBA3B9
:0E398200E0FC8A828B838CF0123EC1AA82ABDD
:0E399000839006B7E0FBBBFF059006B7EAF098
:0C399E002002389006B6E0FBC3EA9B5004
:0D39AA002E9006B6EBC39AF09006B6E0FB37
:0D39B7008B041B9006B6EBF0BC00028010E4
:0E39C400758220C002C0031236ACD003D002C0
:0239D20080E390
:0539D4009006B6EBF0C7
:0539D9009006B7E0FDBF
:0E39DE00C0029006A1E0FCA3E0FFA3E0FA8C7B
:0E39EC00828F838AF0123F14D00260538D0444
:0E39FA001DC374808CF063F08095F05044C0C3
:0A3A0800029006A1E0F510A3E0F51E
:083A120011A3E0F51274012577
:073A1A0010FBE43511FAACCA
:0C3A2100129006A1EBF0A3EAF0A3ECF079
:073A2D0085108285118385DD
:0C3A340012F0123F14FAF582C002C00527
:0B3A40001236ACD005D002D0028093FB
:063A4B00200203023B54BF
:0D3A51009006B6E0FBC3EA9B4003023B5425
:0C3A5E009006B6EBC39AF09006B6E0FAB2
:0E3A6A008A031A9006B6EAF0BB0003023B4F37
:0C3A7800758220C0021236ACD00280E63D
:0E3A84009006B2E0FB24FDF89006B2F0860337
:0E3A920008860408860718189006A1EBF0A31A
:0E3AA000ECF0A3EFF09006A3E0FB247F5008AB
:083AAE009006B97443F080207A
:0D3AB600EB249F50089006B97450F0801367
:0D3AC300EB24BF50089006B97449F080064E
:063AD0009006B97458F0E5
:0E3AD6009006B9E0FBF582C0031236ACD003B7
:0E3AE40075823AC0031236ACD003758230C032
:0E3AF200031236ACD003758278C0031236ACD6
:073B0000D003BB4902800F56
:053B0700BB5002800A22
:0A3B0C009006A2E0FBF582123716C6
:0C3B16009006A1E0FBF582123716803209
:0A3B2200D2069006B5740AF0802860
:083B2C009006B57408F080203A
:083B34009006B5740AF0801838
:083B3C009006B57410F0801032
:043B4400D209800C16
:073B48008E821236AC8005ED
:053B4F009006B6EAF04B
:0C3B540030096B9006B2E0FA24FCF890F7
:0E3B600006B2F0860208860308860408860670
:0E3B6E001818189006A1EAF0A3EBF0A3ECF0F3
:0B3B7C00A3EEF09006A1745BF0A374B0
:063B870047F0A37480F07A
:0E3B8D009006A1E0FBA3E0FCA3E0FD74012B79
:0E3B9B00FEE43CFF8D029006A1EEF0A3EFF0D9
:0E3BA900A3EAF08B828C838DF0123F14FA7029
:043BB700030237C608
:073BBB008A821236AC80CBB8
:0B3BC2009006B5E0FABA00030237C617
:083BCD009006C074BFF0A37460
:063BD50006F030074C90E1
:0E3BDB0006B2E0FA14F89006B2F08602EA3361
:0E3BE90095E0FBFCFE9006A1EAF0A3EBF0A332
:0B3BF700ECF0A3EEF0300603023C9C53
:0E3C02009006A1E0FAA3E0FBA3E0FCA3E0FE25
:0E3C10007B007C007E009006A1EAF0A3EBF0A2
:083C1E00A3ECF0A3EEF08076A8
:0C3C260030082A9006B2E0FA24FCF89066
:0E3C320006B2F086020886030886040886069D
:0E3C40001818189006A1EAF0A3EBF0A3ECF020
:053C4E00A3EEF0804927
:0E3C53009006B2E0FA24FEF89006B2F0860267
:0E3C610008860318EB3395E0FCFE9006A1EAFE
:0C3C6F00F0A3EBF0A3ECF0A3EEF02006B5
:0E3C7B00209006A1E0FAA3E0FBA3E0FCA3E08A
:0E3C8900FE7C007E009006A1EAF0A3EBF0A303
:053C9700ECF0A3EEF0CB
:0C3C9C0030063E9006A1E0FAA3E0FBA376
:0E3CA800E0FCA3E0FE30E72B9006A1E0FAA3BB
:0E3CB600E0FBA3E0FCA3E0FEC3E49AFAE49B6B
:0E3CC400FBE49CFCE49EFE9006A1EAF0A3EB5C
:093CD200F0A3ECF0A3EEF0800277
:023CDB00C2061F
:083CDD00D20A9006B5E0FC7567
:033CE50013BF7595
:043CE80014067D0041
:0E3CEC009006A5E4F08C82C004C005123736A5
:0C3CFA00D005D004200A32C0049006A5BA
:0A3D0600E0FFC4FF851382851483DB
:0A3D1000E0FA420785138285148350
:0A3D1A00EFF0151374FFB513021546
:013D2400148A
:083D25009006C0E513F0A3E5D0
:063D2D0014F0D004800C2C
:093D33009006A5E0FF85138285CE
:033D3C001483F0FD
:093D3F000D9006B8EDF0B20A90F7
:0E3D480006A1E0FFA3E0FAA3E0FEA3E0FBEF7C
:0C3D56004A4E4B70919006C0E513F0A39C
:093D6200E514F09006B8EDF090B4
:0C3D6B0006B6E0FA70069006B67401F08F
:0A3D770020032720022474012DFA16
:053D81009006B6E0FB16
:0D3D8600C3EA9B5011758220C002C00312D9
:093D930036ACD003D0021B80EA1B
:053D9C009006B6EBF0FB
:0A3DA10030061275822D1236AC9028
:0B3DAB0006B6E0FA149006B6F0802F78
:0C3DB6009006B8E0FA6028300412758214
:0B3DC2002B1236AC9006B6E0FA14900D
:053DCD0006B6F08013B2
:0A3DD2003005107582201236AC9007
:093DDC0006B6E0FA149006B6F0F8
:093DE50020022F9006B8E0FA90CC
:043DEE0006B6E0FB3A
:0E3DF2008B041B9006B6EBF0C3EA9C503630F3
:063E000003047C30800287
:023E06007C201E
:0E3E08008C82C002C0031236ACD003D0028000
:013E1600DBD0
:0E3E17009006B6E0FA9006B8E0FCC39A500997
:093E25009006B6EAC39CF0800C83
:073E2E009006B6E4F08005E8
:053E35009006B6EBF061
:0D3E3A009006C0E0FAA3E0FB9006B8E0FCA3
:0A3E47008C061CEE6040B20A200A4F
:063E5100150ABA00010B86
:0E3E57008A828B83E0FEC4540FFE9006A5F015
:023E6500800ECD
:0E3E67008A828B83E0FE53060F9006A5EEF0D4
:0E3E75009006A5E0FEF582C002C003C0041254
:0A3E830036F4D004D003D00280BA58
:063E8D002002030237C60B
:053E93009006B6E0FA04
:093E98008A031AEB70030237C61D
:0C3EA100758220C0021236ACD00280EB0B
:083EAD008D821236AC0237C60B
:0C3EB5009006A6E0FAA3E08A82F58322C2
:0B475B003C4E4F20464C4F41543E00A6
:0E3EC100AAF0AB83E5829006C2F0A3EBF0A35B
:0E3ECF00EAF07A007B009006C2E0FCA3E0FD62
:033EDD00A3E0FE61
:0E3EE0008C828D838EF0123F14FFA3AC82AD56
:0E3EEE00839006C2ECF0A3EDF0A3EEF0EF60BF
:083EFC00070ABA00DF0B80DCAD
:0E3F04009006C2ECF0A3EDF0A3EEF08A828BE3
:023F1200832208
:03200E00758121B8
:0A20110012206FE582600302206ACE
:0E3F140020F71430F6148883A88220F507E603
:063F2200A8837583002254
:033F2800E280F73D
:033F2B00E49322FA
:023F2E00E0228F
:00000001FF
