:0420000002200E327A
:03200B000226CCDE
:0320670002206AEA
:05206A0012207380FE4E
:04206F0090000022BB
:0E207300900007E4F0A3F0900009E4F0A3F061
:0E20810090000BE4F0A3F043D90275EAF3756A
:0C208F00FAF375EB6675FB664389057477
:0A209B002BC0E07431C0E07480C077
:0C20A500E0122853158115811581746A22
:0B20B100C0E07431C0E07480C0E01299
:0C20BC00285315811581158174A8C0E01F
:0C20C8007431C0E07480C0E01228531591
:0A20D400811581158174E6C0E074E7
:0C20DE0031C0E07480C0E012285315816E
:0A20EA00158115817424C0E07432E2
:0E20F400C0E07480C0E01228531581158115DC
:01210200815B
:0A2103007462C0E07432C0E0748022
:0C210D00C0E01228531581158115817463
:0A2119007EC0E07432C0E07480C0A4
:0C212300E012285315811581158174D13C
:0B212F00C0E07432C0E07480C0E01219
:0C213A002853158115811581747EC0E0CA
:0C2146007432C0E07480C0E01228531511
:0A215200811581158174FEC0E07450
:0C215C0032C0E07480C0E01228531581EE
:0A21680015811581742AC0E074335C
:0E217200C0E07480C0E012285315811581155D
:0A21800081744AC0E07433C0E074BB
:0D218A0080C0E01228531581158115817465
:0A2197006DC0E07433C0E07480C036
:0C21A100E01228531581158115817494FB
:0B21AD00C0E07433C0E07480C0E0129A
:0C21B800285315811581158174BDC0E00D
:0C21C4007433C0E07480C0E01228531592
:0A21D00081158115817414C0E074BC
:0C21DA0034C0E07480C0E012285315816E
:0A21E600158115817448C0E07434BF
:0E21F000C0E07480C0E01228531581158115DF
:0A21FE00817481C0E07434C0E07405
:0D22080080C0E012285315811581158174E6
:0A2215007EC0E07432C0E07480C0A7
:0C221F00E012285315811581158174A36D
:0B222B00C0E07434C0E07480C0E0121A
:0E22360028531581158115811226C2AA8290A7
:0E2244000000EAF0EA3395E0FBEA24D0FAEB62
:0E22520034FFFB900001EAF0A3EBF08A04EBEE
:07226000FD30E70302262810
:0E226700C374099A74808BF063F08095F05078
:042275000302262812
:07227900EC2C2C9022807375
:0722800002262802229E0243
:0622870022E202234902DD
:06228D0023B1022424022B
:0622930024880224D4029D
:0522990025260225A22C
:0E229E00758C00758A0090000BE4F0A3F090A0
:0B22AC000009E4F0A3F074ACC0E07483
:0C22B70034C0E07480C0E0122853158190
:0A22C3001581158174CCC0E074345D
:0E22CD00C0E07480C0E0122853158115811501
:0722DB00811226C20221035B
:0E22E200900005E0FAA3E0FB4A7044D28C7431
:0A22F000FDC0E07434C0E07480C04B
:0C22FA00E012285315811581158174CC69
:0B230600C0E07434C0E07480C0E0123E
:0C23110028531581158115811226C290F9
:0E231D0000057401F0E4A3F09000097401F0D3
:06232B00E4A3F00221030F
:0A2331007415C0E07435C0E074803C
:0E233B00C0E01228531581158115810221037F
:0E234900900005E0FAA3E0FBBA0145BB00429C
:0E235700C28C900005E4F0A3F0900009740120
:0A236500F0E4A3F07438C0E0743512
:0E236F00C0E07480C0E012285315811581155E
:0A237D008174CCC0E07434C0E07439
:0D23870080C0E012285315811581158112C8
:0523940026C202210336
:0A2399007450C0E07435C0E0748099
:0E23A300C0E012285315811581158102210317
:0C23B100900007E0FAA3E0FB4A705074B3
:0A23BD0088C0E07435C0E07480C0F1
:0C23C700E012285315811581158174A4C3
:0C23D300C0E07435C0E01226FF15811533
:0E23DF008143DA4243DB42D2DE9000077401F4
:0A23ED00F0E4A3F074CCC0E07434F7
:0E23F700C0E07480C0E01228531581158115D6
:07240500811226C20221032F
:0A240C0074CCC0E07435C0E07480A9
:0E241600C0E0122853158115811581022103A3
:0E242400900007E0FAA3E0FBBA0141BB003EC6
:0A24320074F0C0E07435C0E074805F
:0E243C00C0E0122853158115811581C2DE748F
:0C244A00FD55DBF5DA74FD55DCF5DB74A4
:0A245600CCC0E07434C0E07480C014
:0E246000E01228531581158115811226C20243
:02246E00210348
:0A2470007408C0E07436C0E0748008
:0E247A00C0E01228531581158115810221033F
:0E248800AA8C8A037A00AC8A7D00EC2AFAED59
:0E2496003BFB900003EAF0A3EBF0C002C00392
:0A24A4007441C0E07436C0E074809B
:0C24AE00C0E0122853E58124FBF5817486
:0A24BA00CCC0E07434C0E07480C0B0
:0E24C400E01228531581158115811226C202DF
:0224D2002103E4
:0A24D4007461C0E07436C0E074804B
:0E24DE00C0E012285315811581158175A88064
:0C24EC00D2A8438701C2A875A800747E26
:0B24F800C0E07436C0E07480C0E01249
:0C250300285315811581158174CCC0E0AF
:0C250F007434C0E07480C0E01228531542
:0B251B0081158115811226C2022103E8
:0A25260074A3C0E07436C0E07480B6
:0E253000C0E012285315811581158175A88011
:0A253E00D2A874C6C0E07436C0E0F5
:0E2548007480C0E0122853158115811581435F
:0C2556008702C2A875A88074E4C0E0747D
:0C25620036C0E07480C0E01228531581E0
:0A256E001581158174E8C0E0743691
:0E257800C0E07480C0E0122853158115811553
:0A2586008174CCC0E07434C0E0742E
:0D25900080C0E012285315811581158112BD
:05259D0026C20221032B
:0A25A2007405C0E07437C0E07480D7
:0E25AC00C0E01228531581158115819000059D
:0C25BA00E0FAA3E0FBBA0118BB001574A6
:0A25C6002CC0E07437C0E07480C040
:0A25D000E0122853158115811581D2
:0E25DA00900007E0FAA3E0FBBA0118BB001561
:0A25E8007449C0E07437C0E074804D
:0B25F200C0E0122853158115811581EF
:0E25FD00900009E0FAA3E0FBBA0105BB000262
:02260B0080034A
:03260D00022103A4
:0A2610007469C0E07437C0E0748004
:0E261A00C0E01228531581158115810221039D
:0A2628007486C0E07437C0E07480CF
:0E263200C0E012285315811581158102210385
:0E264000AAF0AB83E58290000DF0A3EBF0A3AF
:0E264E00EAF090000DE0FAA3E0FBA3E0FC7DB3
:03265C00007E00FD
:0E265F008A828B838CF01230F2FF60300ABA50
:03266D0000010B5E
:0E26700090000DEAF0A3EBF0A3ECF08F82C017
:0E267E0002C003C004C005C0061226B0D0067C
:0E268C00D005D004D003D0020DBD00C70E80D3
:01269A00C47B
:0E269B0090000DEAF0A3EBF0A3ECF00DBD00F3
:0226A900010E20
:0526AB008D828E8322E8
:0626B000E582900010F02D
:0526B60010990280FBF9
:0726BB00900010E0F59922E8
:0526C20010980280FBEE
:0526C700AA998A82229D
:0E26CC00C0E0C082C083C002C003C0D075D081
:0E26DA0000C28DB29790000BE0FAA3E0FB90D7
:0E26E800000B74012AF0E43BA3F0D0D0D00325
:0926F600D002D083D082D0E03282
:0E312B000A0A0D575720202020202057572039
:0E31390045454545454545204C4C202020206D
:0E31470020202043434343432020204F4F4F7E
:0E3155004F4F20204D4D202020204D4D204575
:0731630045454545454500C7
:0E316A000A0D575720202020202057572045BF
:0E317800452020202020204C4C20202020200C
:0E3186002043432020202020204F4F202020D7
:0E3194004F4F204D4D4D20204D4D4D204545B7
:0631A20020202020200087
:0E31A8000A0D5757202020572020575720454A
:0E31B600454545452020204C4C20202020205F
:0E31C4002043432020202020204F4F20202099
:0E31D2004F4F204D4D204D4D204D4D20454579
:0631E000454545202000DA
:0E31E6000A0D2057572057575720575720459E
:0E31F400452020202020204C4C202020202090
:0E3202002043432020202020204F4F2020205A
:0E3210004F4F204D4D202020204D4D20454594
:06321E002020202020000A
:0E3224000A0D20205757202020575720204504
:0E323200454545454545204C4C4C4C4C4C4CBC
:0E324000202043434343432020204F4F4F4F55
:0E324E003020204D4D202020204D4D204545A4
:06325C0045454545450013
:0E3262000A0A0D506C65617365206D616B6525
:0E32700020612073656C656374696F6E3A00AF
:0E327E000A0D2D2D2D2D2D2D2D2D2D2D2D2D0F
:0E328C002D2D2D2D2D2D2D2D2D2D2D2D2D2DBE
:0E329A002D2D2D2D2D2D2D2D2D2D2D2D2D2DB0
:0E32A8002D2D2D2D2D2D2D2D2D2D2D2D2D2DA2
:0E32B6002D2D2D2D2D2D2D2D2D2D2D2D2D2D94
:0D32C4002D2D2D2D2D2D2D2D2D2D2D2D00E1
:0E32D1000A0A0D20202020202020202020206E
:0E32DF00202020202020202020202020202021
:0E32ED00202020202020204D41494E204D451C
:0332FB004E55002D
:0E32FE000A0D312E436C65617220436F756EB0
:0E330C0074657220302028726573657420632A
:0E331A006F756E74657220746F207A65726F25
:0233280029007A
:0E332A000A0D322E52756E20436F756E74655B
:0E3338007220302028736574205452302062B9
:04334600697429007D
:0E334A000A0D332E53746F7020436F756E742E
:0E335800657220302028636C6561722054522B
:0733660030206269742900A8
:0E336D000A0D342E52756E2050574D202874D4
:0E337B0075726E206F6E20626F74682050575E
:0B3389004D206F75747075747329007F
:0E3394000A0D352E53746F702050574D2028AF
:0E33A2007475726E206F666620626F7468200C
:0D33B00050574D206F7574707574732900AF
:0E33BD000A0D362E5265616420436F756E74E2
:0E33CB006572203020616E64207072696E742D
:0E33D900206F75742063757272656E742076B5
:0E33E700616C756520287665726966696162A1
:0E33F5006C65206E756D626572732920746FB1
:0E340300207468652073657269616C20706FBB
:03341100727400D2
:0E3414000A0D372E456E7465722049646C6592
:0E342200206D6F646520287365742049444C4A
:0E343000452062697420696E2050434F4E2083
:0A343E0072656769737465722900F6
:0E3448000A0D382E456E74657220506F776540
:0E3456007220446F776E206D6F6465202873BE
:0E3464006574205044452062697420696E2012
:0E34720050434F4E207265676973746572296E
:01348000004B
:0E3481000A0D392E546F20636865636B20536B
:0E348F007461747573206F6620746865207315
:06349D00797374656D00F7
:0934A3000A0D28312D39293A00E7
:0E34AC000A0A0D436F756E74657230206861F8
:0E34BA0073206265656E20636C6561726564E7
:0434C8000A0A0D00DF
:0E34CC000A0A0D507265737320616E79206BD1
:0E34DA00657920746F20676F206261636B203C
:0E34E800746F20746865206D61696E206D65DB
:0734F6006E75202E2E2E0042
:0E34FD000A0A0D436F756E74657230205255C9
:0A350B004E4E494E47210A0A0D00FA
:0E3515000A0A0D436F756E746572302069737B
:0E35230020616C7265616479206F7065726161
:0735310074696F6E616C000C
:0E3538000A0A0D436F756E746572302053548D
:0A3546004F50504544210A0A0D00C1
:0E3550000A0A0D436F756E7465723020697340
:0E355E00206E6F74206F7065726174696F6EFD
:0E356C00616C2E2048656E63652043616E6EB3
:0E357A006F742062652073746F70706564005A
:0E3588000A0A0D50574D206F757470757473DC
:0E35960020696E697469617465640A0A0D002B
:0E35A4000A0D2050574D20204F4E200A0A0DD0
:0E35B200202050312E3320443D35252050314D
:0C35C0002E3420443D363025200A0D003A
:0E35CC000A0A0D50574D206F75747075747398
:0E35DA002061726520616C72656164792072F7
:0835E8006F6C6C696E67200036
:0E35F0000A0A0D50574D206F75747075747374
:0A35FE0020656E6465640A0A0D0082
:0E36080050574D206F75747075747320617289
:0E36160065206E6F74206F7065726174696F4D
:0E3624006E616C2E2048656E63652063616EDA
:0E3632006E6F742062652073746F7070656433
:013640000089
:0E3641000A0A0D54686520636F756E74657219
:0E364F00206F757470757420697320256420D7
:04365D000A0A0D0048
:0E3661000A0A0D50726F636573736F722069F1
:0E366F006E2049646C65206D6F64650A0A0D5B
:01367D00004C
:0E367E000A0A0D5375636365737366756C6C91
:0E368C0079204558495445442069646C6520F6
:09369A006D6F6465200A0A0D0041
:0E36A3000A0A0D50726F636573736F722069AF
:0E36B1006E20506F77657220446F776E204D4B
:0736BF006F64650A0A0D00AB
:0E36C6000A0A0D456E746572696E6720706F9A
:0E36D40077657220646F776E206D6F64650AF3
:0236E2000D00D9
:0436E4000A0A0D00C1
:0E36E8000A0A0D45786974656420706F776575
:0E36F6007220646F776E206D6F6465200A0D80
:0137040000C4
:0E37050054686520737461757320666F7220BE
:0E3713007468652073797374656D2069732086
:0B372100617320666F6C6C6F777300A3
:0E372C000A0A0D2054686520436F756E74659F
:0E373A0072302069732072756E6E696E6720A2
:013748000080
:0E3749000A0A0D205468652050574D206F75F8
:0E3757007470757473206172652072756E6EE9
:04376500696E670022
:0E3769000A0A0D2054686520636F756E746542
:0E3777007220686F6C6420612076616C75654D
:013785000043
:0E3786000A0A0D496E76616C696420496E7006
:0E37940075742054727920616761696E2E0A87
:0337A2000A0D000D
:06203D00E478FFF6D8FD77
:08201B007900E94400601B7A22
:05202300009037B078C9
:032028003F75A061
:0A202B0000E493F2A308B8000205D8
:08203500A0D9F4DAF275A0FF56
:0526FF00C00885810800
:0B270400E50824FDF886831886821883
:0E270F00E493A324DB600C242560051227EC64
:02271D0080F04A
:03271F0002280489
:09272200D2D5E493A3C083C08268
:03272B00B4731470
:09272E0086F018868318868218D3
:0B2737001230F26053A31227EC80F573
:0A274200B46307E6181227EC804389
:0E274C00B46417E630E74618E6F42401F608F8
:0C275A00E6F43400F6742D1227EC8033F6
:0A276600B4782D868318868218E4EB
:0B2770001227DDE5831227DCE5831251
:0A277B0027DDE5821227DCE582125B
:0A27850027DD30D50574301227EC73
:07278F00D082D08302270F66
:03279600B475F621
:06279900E6FA18E6F9184B
:0D279F007C107D271227C7FF7CE87D031208
:0E27AC0027C7C4F5837C647D001227C74283D3
:0D27BA00E975F00A84C445F0F582EF80A9AE
:0227C7007B0095
:0E27C9000BC3E99CF9EA9DFA50F61BE92CF9C6
:0527D700EA3DFAEB22CF
:0127DC00C438
:0727DD00540F700320D51F0B
:0827E400C2D52490D43440D486
:0E27EC00C083C082C0F0F582E8C0E01226B0C3
:0927FA00D0E0F8D0F0D082D083C9
:0128030022B2
:03280400D00822D7
:082043007800E84400600A790E
:03204B000075A07D
:06204E0000E4F309D8FCD8
:08205400783FE84400600C79BC
:0B205C0001900000E4F0A3D8FCD9FACA
:08280700C008858108AA8212B5
:05280F0026B0D00822F4
:0E281400AAF0AB83E582900012F0A3EBF0A3D4
:0E282200EAF0900012E0FAA3E0FBA3E0FC90C5
:0E2830000011E0FD900025E4F0A3F0A3F0906D
:0E283E000028EAF0A3EBF0A3ECF090002BEDE5
:07284C00F090280702296C3F
:06285300C008858108E5C4
:0C2859000824FBFA900025E4F0A3F0A393
:0C286500F0E50824FBF8900028E6F008DD
:0D287100A3E6F008A3E6F090002BEAF0903B
:0A287E00280712296CAA82AB83D050
:02288800082224
:0C288A00E582900021F0900021E0FA901F
:0E2896000017E0C0E0A3E0C0E0A3E0C0E074E3
:0828A400B8C0E07428C0E09008
:0C28AC000015E0C0E0A3E0C0E08A82223A
:0E28B80015811581158190001FE0FAA3E0FB49
:0C28C60090001F74012AF0E43BA3F022F4
:0E28D200E582900022F0900022E0FA74302A95
:0C28E000FA24C6500A74072AFA300003DC
:0328EC0043022084
:0528EF008A8202288A24
:0E28F400E582900023F0900023E0FAC4540F18
:0E290200FBF582C0021228D2D00253020F8AC7
:04291000820228D245
:0E291400E582900024F090001AE0FAA3E0FBA8
:0E292200A3E0FCA3E0FD90001EE0FE90002468
:04293000E0FF78202C
:0E293400EE2EFEED235401F94206EA2AFAEBDC
:0E29420033FBEC33FCED33FDC3EE9F4007EE9C
:06295000C39FFE430201DB
:0E295600D8DC90001AEAF0A3EBF0A3ECF0A39B
:08296400EDF090001EEEF022E0
:0E296C00AA83E58290002CF0A3EAF090002CE4
:0E297A00E0FAA3E0FB900015EAF0A3EBF0906A
:0E2988000025E0FAA3E0FBA3E0FC900017EAB4
:0E299600F0A3EBF0A3ECF090001FE4F0A3F030
:0E29A400900028E0FAA3E0FBA3E0FC8A828BFF
:0E29B200838CF01230F2FD90002874012AF0A0
:0D29C000E43BA3F0A3ECF0ED7003023093B4
:0529CD00BD250280039E
:0329D20002308B45
:0529D500C201C202C2B4
:0429DA0003C204C26E
:0429DE0005C206C266
:0429E20007C2089090
:0929E600002EE4F090002FF090A7
:0E29EF00003074FFF0900028E0FAA3E0FBA394
:0229FD00E0FCFC
:0E29FF008A828B838CF01230F2FEA3AA82AB88
:0D2A0D0083900028EAF0A3EBF0A3ECF0901A
:0D2A1A000032EEF0BE25088E8212288A02DE
:022A270029A4E0
:052A29008E07BF300024
:0E2A2E0040498E07EF24C64042900030E0FF82
:0E2A3C00BFFF29C002C003C00490002FE0FAC3
:0E2A4A0075F00AA4FAEE24D090002F2AF09026
:0D2A5800002FE0FAD004D003D002709BD212
:032A650002809755
:0E2A6800EF75F00AA4FFEE24D09000302FF09E
:032A76000229FF33
:0E2A7900900032E0FEBE2E08900030E4F00225
:022A870029FF25
:0E2A89008E82C002C003C004C00612310EE5EA
:0C2A97008224FF9200D006D004D003D0AF
:0B2AA3000230000790003274DF5EF08C
:0A2AAE00900032E0FEBE20028055C9
:052AB800BE2B02804B63
:052ABD00BE2D02804166
:052AC200BE4202804B42
:052AC700BE4302805037
:062ACC00BE4403022D00D0
:062AD200BE4603022D22A6
:062AD800BE4903022D00BF
:052ADE00BE4C02803433
:062AE300BE4F03022D0AA4
:062AE900BE5003022C6246
:052AEF00BE530280420D
:062AF400BE5503022D1285
:062AFA00BE5803022D1A74
:032B0000022D267D
:052B0300D2010229FFD0
:052B0800D2030229FFC9
:052B0D00D2040229FFC3
:052B1200D2060229FFBC
:052B1700D2070229FFB6
:0E2B1C0090002BE0FA24FEF890002BF08602C9
:0C2B2A00088603188A8212288A022D32C5
:0E2B360090002BE0FA24FDF890002BF08602B0
:0E2B4400088603088604181890001AEAF0A309
:0E2B5200EBF0A3ECF090001AE0FAA3E0FBA376
:0E2B6000E0FC8A828B838CF012309FAA82AB3D
:0E2B6E0083900030E0FBBBFF05900030EAF0E2
:0C2B7C0020013890002FE0FBC3EA9B50C2
:0D2B88002E90002FEBC39AF090002FE0FB81
:0D2B95008B041B90002FEBF0BC00028010A1
:0E2BA200758220C002C00312288AD003D00220
:022BB00080E3C0
:052BB20090002FEBF084
:052BB700900030E0FD7C
:0E2BBC00C00290001AE0FCA3E0FFA3E0FA8C38
:0E2BCA00828F838AF01230F2D00260538D04A5
:0E2BD8001DC374808CF063F08095F05044C0F3
:0A2BE6000290001AE0F509A3E0F5E3
:082BF0000AA3E0F50B740125B6
:072BF80009FBE4350AFAAC09
:0C2BFF000B90001AEBF0A3EAF0A3ECF03E
:072C0B00850982850A83851B
:0C2C12000BF01230F2FAF582C002C0058F
:0B2C1E0012288AD005D002D00280935B
:062C2900200103022D3220
:0D2C2F0090002FE0FBC3EA9B4003022D3212
:0C2C3C0090002FEBC39AF090002FE0FAFC
:0E2C48008A031A90002FEAF0BB0003022D2D24
:0C2C5600758220C00212288AD00280E69D
:0E2C620090002BE0FB24FDF890002BF0860381
:0E2C7000088604088607181890001AEBF0A3D7
:0E2C7E00ECF0A3EFF090001CE0FB247F500868
:082C8C009000327443F0802037
:0D2C9400EB249F50089000327450F0801324
:0D2CA100EB24BF50089000327449F080060B
:062CAE009000327458F0A2
:0E2CB400900032E0FBF582C00312288AD003A4
:0E2CC20075823AC00312288AD003758230C092
:0E2CD0000312288AD003758278C00312288A66
:072CDE00D003BB4902800F87
:052CE500BB5002800A53
:0A2CEA0090001BE0FBF5821228F4B5
:0C2CF40090001AE0FBF5821228F48032F8
:0A2D0000D20590002E740AF080281E
:082D0A0090002E7408F08020F7
:082D120090002E740AF08018F5
:082D1A0090002E7410F08010EF
:042D2200D208800C47
:072D26008E8212288A80054D
:052D2D0090002FEAF008
:0C2D320030086B90002BE0FA24FCF890B5
:0E2D3E00002BF086020886030886040886062D
:0E2D4C0018181890001AEAF0A3EBF0A3ECF0B0
:0B2D5A00A3EEF090001A74A5F0A37423
:062D650037F0A37480F0BA
:0E2D6B0090001AE0FBA3E0FCA3E0FD74012B36
:0E2D7900FEE43CFF8D0290001AEEF0A3EFF096
:0E2D8700A3EAF08B828C838DF01230F2FA708A
:042D9500030229A468
:072D99008A8212288A80CB18
:0B2DA00090002EE0FABA00030229A404
:082DAB009000397438F0A374A4
:062DB30000F030064C9018
:0E2DB900002BE0FA14F890002BF08602EA33AB
:0E2DC70095E0FBFCFE90001AEAF0A3EBF0A3EF
:0B2DD500ECF0A3EEF0300503022E7AB4
:0E2DE00090001AE0FAA3E0FBA3E0FCA3E0FEE3
:0E2DEE007B007C007E0090001AEAF0A3EBF060
:082DFC00A3ECF0A3EEF08076D9
:0C2E040030072A90002BE0FA24FCF89024
:0E2E1000002BF086020886030886040886065A
:0E2E1E0018181890001AEAF0A3EBF0A3ECF0DD
:052E2C00A3EEF0804957
:0E2E310090002BE0FA24FEF890002BF08602B1
:0E2E3F0008860318EB3395E0FCFE90001AEABB
:0C2E4D00F0A3EBF0A3ECF0A3EEF02005E6
:0E2E59002090001AE0FAA3E0FBA3E0FCA3E047
:0E2E6700FE7C007E0090001AEAF0A3EBF0A3C0
:052E7500ECF0A3EEF0FB
:0C2E7A0030053E90001AE0FAA3E0FBA334
:0E2E8600E0FCA3E0FE30E72B90001AE0FAA378
:0E2E9400E0FBA3E0FCA3E0FEC3E49AFAE49B9B
:0E2EA200FBE49CFCE49EFE90001AEAF0A3EB19
:092EB000F0A3ECF0A3EEF08002A7
:022EB900C20550
:082EBB00D20990002EE0FC7525
:032EC3000C387553
:042EC6000D007D007E
:0E2ECA0090001EE4F08C82C004C00512291492
:0C2ED800D005D004200932C00490001E78
:0A2EE400E0FFC4FF850C82850D831A
:0A2EEE00E0FA4207850C82850D838F
:0A2EF800EFF0150C74FFB50C021585
:012F02000DC1
:082F0300900039E50CF0A3E594
:062F0B000DF0D004800C63
:092F110090001EE0FF850C828592
:032F1A000D83F034
:092F1D000D900031EDF0B20990B5
:0E2F2600001AE0FFA3E0FAA3E0FEA3E0FBEF39
:0C2F34004A4E4B7091900039E50CF0A360
:092F4000E50DF0900031EDF09078
:0C2F4900002FE0FA700690002F7401F0D9
:0A2F550020022720012474012DFA48
:052F5F0090002FE0FBD3
:0D2F6400C3EA9B5011758220C002C0031209
:092F7100288AD003D0021B80EA7B
:052F7A0090002FEBF0B8
:0A2F7F0030051275822D12288A9089
:0B2F8900002FE0FA1490002FF0802FC2
:0C2F9400900031E0FA60283003127582D2
:0B2FA0002B12288A90002FE0FA1490FA
:052FAB00002FF080136F
:0A2FB00030041075822012288A9068
:092FBA00002FE0FA1490002FF042
:092FC30020012F900031E0FA908A
:042FCC00002FE0FBF7
:0E2FD0008B041B90002FEBF0C3EA9C503630B0
:062FDE0002047C308002B9
:022FE4007C204F
:0E2FE6008C82C002C00312288AD003D0028061
:012FF400DB01
:0E2FF50090002FE0FA900031E0FCC39A5009E2
:0930030090002FEAC39CF0800C40
:07300C0090002FE4F08005A5
:0530130090002FEBF01E
:0D301800900039E0FAA3E0FB900031E0FCED
:0A3025008C061CEE6040B209200981
:06302F00150ABA00010BB6
:0E3035008A828B83E0FEC4540FFE90001EF0D2
:02304300800EFD
:0E3045008A828B83E0FE53060F90001EEEF091
:0E30530090001EE0FEF582C002C003C0041211
:0A30610028D2D004D003D00280BAB8
:06306B002001030229A46C
:0530710090002FE0FAC1
:093076008A031AEB70030229A47D
:0C307F00758220C00212288AD00280EB6B
:08308B008D8212288A0229A49B
:0C30930090001FE0FAA3E08A82F583227F
:0B37A5003C4E4F20464C4F41543E006C
:0E309F00AAF0AB83E58290003BF0A3EBF0A318
:0E30AD00EAF07A007B0090003BE0FCA3E0FD1F
:0330BB00A3E0FE91
:0E30BE008C828D838EF01230F2FFA3AC82ADB7
:0E30CC008390003BECF0A3EDF0A3EEF0EF607C
:0830DA00070ABA00DF0B80DCDD
:0E30E20090003BECF0A3EDF0A3EEF08A828BA1
:0230F000832239
:03200E00758121B8
:0A20110012206FE582600302206ACE
:0E30F20020F71430F6148883A88220F507E634
:06310000A8837583002284
:03310600E280F76D
:03310900E493222A
:02310C00E022BF
:0E310E00E58290003EF090003EE0FABA6100CB
:0B311C004009EA24854004758201226E
:04312700758200228B
:00000001FF
